{
  "contractName": "LuckyYou",
  "abi": [
    {
      "constant": true,
      "inputs": [],
      "name": "ended",
      "outputs": [
        {
          "name": "",
          "type": "bool"
        }
      ],
      "payable": false,
      "stateMutability": "view",
      "type": "function"
    },
    {
      "constant": true,
      "inputs": [],
      "name": "prize_for_winner",
      "outputs": [
        {
          "name": "",
          "type": "uint256"
        }
      ],
      "payable": false,
      "stateMutability": "view",
      "type": "function"
    },
    {
      "constant": true,
      "inputs": [],
      "name": "beneficiary",
      "outputs": [
        {
          "name": "",
          "type": "address"
        }
      ],
      "payable": false,
      "stateMutability": "view",
      "type": "function"
    },
    {
      "constant": true,
      "inputs": [],
      "name": "lotteryEndTime",
      "outputs": [
        {
          "name": "",
          "type": "uint256"
        }
      ],
      "payable": false,
      "stateMutability": "view",
      "type": "function"
    },
    {
      "constant": true,
      "inputs": [],
      "name": "prize_for_beneficiary",
      "outputs": [
        {
          "name": "",
          "type": "uint256"
        }
      ],
      "payable": false,
      "stateMutability": "view",
      "type": "function"
    },
    {
      "constant": true,
      "inputs": [],
      "name": "total_prize",
      "outputs": [
        {
          "name": "",
          "type": "uint256"
        }
      ],
      "payable": false,
      "stateMutability": "view",
      "type": "function"
    },
    {
      "constant": true,
      "inputs": [],
      "name": "winner",
      "outputs": [
        {
          "name": "",
          "type": "address"
        }
      ],
      "payable": false,
      "stateMutability": "view",
      "type": "function"
    },
    {
      "constant": true,
      "inputs": [],
      "name": "winner_percent",
      "outputs": [
        {
          "name": "",
          "type": "uint256"
        }
      ],
      "payable": false,
      "stateMutability": "view",
      "type": "function"
    },
    {
      "inputs": [
        {
          "name": "_lotteryTime",
          "type": "uint256"
        },
        {
          "name": "_benificiary",
          "type": "address"
        },
        {
          "name": "_winner_percent",
          "type": "uint256"
        }
      ],
      "payable": false,
      "stateMutability": "nonpayable",
      "type": "constructor"
    },
    {
      "anonymous": false,
      "inputs": [
        {
          "indexed": false,
          "name": "winner",
          "type": "address"
        },
        {
          "indexed": false,
          "name": "winner_prize",
          "type": "uint256"
        },
        {
          "indexed": false,
          "name": "beneficiary_prize",
          "type": "uint256"
        }
      ],
      "name": "lotteryEnded",
      "type": "event"
    },
    {
      "anonymous": false,
      "inputs": [
        {
          "indexed": false,
          "name": "totoal_prize",
          "type": "uint256"
        }
      ],
      "name": "totalPrizeUpdated",
      "type": "event"
    },
    {
      "constant": false,
      "inputs": [
        {
          "name": "words",
          "type": "bytes32"
        }
      ],
      "name": "buy",
      "outputs": [],
      "payable": true,
      "stateMutability": "payable",
      "type": "function"
    },
    {
      "constant": false,
      "inputs": [],
      "name": "lotteryEnd",
      "outputs": [],
      "payable": false,
      "stateMutability": "nonpayable",
      "type": "function"
    }
  ],
  "bytecode": "0x608060405234801561001057600080fd5b50604051606080610f398339810180604052606081101561003057600080fd5b810190808051906020019092919080519060200190929190805190602001909291905050506064811080156100655750600181115b15156100ff576040517f08c379a000000000000000000000000000000000000000000000000000000000815260040180806020018281038252602f8152602001807f77696e6e6572207072697a652070657263656e746167652073686f756c64206281526020017f65747765656e205b312c2031303029000000000000000000000000000000000081525060400191505060405180910390fd5b81600160006101000a81548173ffffffffffffffffffffffffffffffffffffffff021916908373ffffffffffffffffffffffffffffffffffffffff16021790555082420160048190555080600581905550505050610dd7806101626000396000f3fe6080604052600436106100a4576000357c0100000000000000000000000000000000000000000000000000000000900463ffffffff16806312fa6feb146100a9578063238bab0b146100d857806338af3eed1461010357806343662a7e1461015a57806382757a01146101855780639c9a1061146101b0578063cfe044d6146101de578063d70fa7de14610209578063dfbf53ae14610220578063f6d6772f14610277575b600080fd5b3480156100b557600080fd5b506100be6102a2565b604051808215151515815260200191505060405180910390f35b3480156100e457600080fd5b506100ed6102b5565b6040518082815260200191505060405180910390f35b34801561010f57600080fd5b506101186102bb565b604051808273ffffffffffffffffffffffffffffffffffffffff1673ffffffffffffffffffffffffffffffffffffffff16815260200191505060405180910390f35b34801561016657600080fd5b5061016f6102e1565b6040518082815260200191505060405180910390f35b34801561019157600080fd5b5061019a6102e7565b6040518082815260200191505060405180910390f35b6101dc600480360360208110156101c657600080fd5b81019080803590602001909291905050506102ed565b005b3480156101ea57600080fd5b506101f3610514565b6040518082815260200191505060405180910390f35b34801561021557600080fd5b5061021e61051a565b005b34801561022c57600080fd5b50610235610aad565b604051808273ffffffffffffffffffffffffffffffffffffffff1673ffffffffffffffffffffffffffffffffffffffff16815260200191505060405180910390f35b34801561028357600080fd5b5061028c610ad2565b6040518082815260200191505060405180910390f35b600760009054906101000a900460ff1681565b60025481565b600160009054906101000a900473ffffffffffffffffffffffffffffffffffffffff1681565b60045481565b60035481565b600a60003373ffffffffffffffffffffffffffffffffffffffff1673ffffffffffffffffffffffffffffffffffffffff16815260200190815260200160002060020160009054906101000a900460ff161515156103b2576040517f08c379a00000000000000000000000000000000000000000000000000000000081526004018080602001828103825260198152602001807f7573657220616c7265616479207061727469636970617465640000000000000081525060200191505060405180910390fd5b6000341415156105115760093390806001815401808255809150509060018203906000526020600020016000909192909190916101000a81548173ffffffffffffffffffffffffffffffffffffffff021916908373ffffffffffffffffffffffffffffffffffffffff1602179055505060606040519081016040528082815260200134815260200160011515815250600a60003373ffffffffffffffffffffffffffffffffffffffff1673ffffffffffffffffffffffffffffffffffffffff168152602001908152602001600020600082015181600001556020820151816001015560408201518160020160006101000a81548160ff02191690831515021790555090505034600660008282540192505081905550806008600082825418925050819055507f5ed5d9e8a790fdadb2ec4b33cb78d67dc9f0a17d9bcd97a4b4dfdceff872bdec6006546040518082815260200191505060405180910390a15b50565b60065481565b6001600760006101000a81548160ff02191690831515021790555060006009805490501115156105b2576040517f08c379a000000000000000000000000000000000000000000000000000000000815260040180806020018281038252600a8152602001807f6e6f20706c61796572730000000000000000000000000000000000000000000081525060200191505060405180910390fd5b6064600554600654028115156105c457fe5b046002819055506002546006540360038190555060006105e2610ad8565b905060065481106105f282610c52565b90151561069a576040517f08c379a00000000000000000000000000000000000000000000000000000000081526004018080602001828103825283818151815260200191508051906020019080838360005b8381101561065f578082015181840152602081019050610644565b50505050905090810190601f16801561068c5780820380516001836020036101000a031916815260200191505b509250505060405180910390fd5b50600080905060008090505b8281101561073b57600a60006009848154811015156106c157fe5b9060005260206000200160009054906101000a900473ffffffffffffffffffffffffffffffffffffffff1673ffffffffffffffffffffffffffffffffffffffff1673ffffffffffffffffffffffffffffffffffffffff168152602001908152602001600020600101548101905081806001019250506106a6565b60098054905082600190039250821061075383610c52565b9015156107fb576040517f08c379a00000000000000000000000000000000000000000000000000000000081526004018080602001828103825283818151815260200191508051906020019080838360005b838110156107c05780820151818401526020810190506107a5565b50505050905090810190601f1680156107ed5780820380516001836020036101000a031916815260200191505b509250505060405180910390fd5b5060098281548110151561080b57fe5b9060005260206000200160009054906101000a900473ffffffffffffffffffffffffffffffffffffffff166000806101000a81548173ffffffffffffffffffffffffffffffffffffffff021916908373ffffffffffffffffffffffffffffffffffffffff1602179055507f2e25c73d7b7186a6b212ac0997035cf1ffe1a0468d63136ba374a5c10541f9436000809054906101000a900473ffffffffffffffffffffffffffffffffffffffff16600254600354604051808473ffffffffffffffffffffffffffffffffffffffff1673ffffffffffffffffffffffffffffffffffffffff168152602001838152602001828152602001935050505060405180910390a1600073ffffffffffffffffffffffffffffffffffffffff166000809054906101000a900473ffffffffffffffffffffffffffffffffffffffff1673ffffffffffffffffffffffffffffffffffffffff16141515156109d3576040517f08c379a00000000000000000000000000000000000000000000000000000000081526004018080602001828103825260158152602001807f77696e6e657220616464726573732077726f6e6721000000000000000000000081525060200191505060405180910390fd5b6000809054906101000a900473ffffffffffffffffffffffffffffffffffffffff1673ffffffffffffffffffffffffffffffffffffffff166108fc6002549081150290604051600060405180830381858888f19350505050158015610a3c573d6000803e3d6000fd5b50600160009054906101000a900473ffffffffffffffffffffffffffffffffffffffff1673ffffffffffffffffffffffffffffffffffffffff166108fc6003549081150290604051600060405180830381858888f19350505050158015610aa7573d6000803e3d6000fd5b50505050565b6000809054906101000a900473ffffffffffffffffffffffffffffffffffffffff1681565b60055481565b600080600654111515610b53576040517f08c379a000000000000000000000000000000000000000000000000000000000815260040180806020018281038252601b8152602001807f64656e6f6d696e61746f722063616e6e6f74206265207a65726f21000000000081525060200191505060405180910390fd5b6000600242444260085460065460405160200180868152602001858152602001848152602001838152602001828152602001955050505050506040516020818303038152906040526040518082805190602001908083835b602083101515610bd05780518252602082019150602081019050602083039250610bab565b6001836020036101000a038019825116818451168082178552505050505050905001915050602060405180830381855afa158015610c12573d6000803e3d6000fd5b5050506040513d6020811015610c2757600080fd5b810190808051906020019092919050505090506006548160019004811515610c4b57fe5b0691505090565b60606000821415610c9a576040805190810160405280600181526020017f30000000000000000000000000000000000000000000000000000000000000008152509050610da6565b600082905060005b600082141515610cc8578080600101915050600a82811515610cc057fe5b049150610ca2565b6060816040519080825280601f01601f191660200182016040528015610cfd5781602001600182028038833980820191505090505b50905060006001830390505b600086141515610d9e57600a86811515610d1f57fe5b066030017f010000000000000000000000000000000000000000000000000000000000000002828280600190039350815181101515610d5a57fe5b9060200101907effffffffffffffffffffffffffffffffffffffffffffffffffffffffffffff1916908160001a905350600a86811515610d9657fe5b049550610d09565b819450505050505b91905056fea165627a7a723058200b264d7ab31cfff7c838445a05d1f6a5a5c98d6272542acfee05287243a0b5b80029",
  "source": "pragma solidity >=0.4.22 <0.7.0;\n\ncontract LuckyYou {\n\n    struct Ticket {\n        bytes32 ticket_words;\n        uint deposit;\n        bool brought;\n    }\n\n    address payable public winner;\n    address payable public beneficiary;\n    uint public prize_for_winner;\n    uint public prize_for_beneficiary;\n    uint public lotteryEndTime;\n    uint public winner_percent;\n    uint public total_prize;\n    bool public ended;\n    bytes32 seed;\n\n    address payable[] players;\n    mapping(address => Ticket) player_shares;\n    // mapping(address => uint) player_shares;\n\n    event lotteryEnded(address winner, uint winner_prize, uint beneficiary_prize);\n    event totalPrizeUpdated(uint totoal_prize);\n    // event log(bytes32 seed, uint denominator);\n\n    modifier onlyBefore(uint _time) {require(now < _time, \"lottery already ended\"); _ ;}\n    modifier onlyAfter(uint _time) {require(now < _time, \"not at the time yet\"); _ ;}\n\n    constructor (uint _lotteryTime, address payable _benificiary, uint _winner_percent) public {\n\n        require(_winner_percent < 100 && _winner_percent > 1, \"winner prize percentage should between [1, 100)\");\n\n        beneficiary = _benificiary;\n        lotteryEndTime = now + _lotteryTime; // seconds\n        winner_percent = _winner_percent;\n    }\n\n    function buy(bytes32 words) public payable {// onlyBefore(lotteryEndTime) { // FIXME for performace test\n\n        require(!player_shares[msg.sender].brought, \"user already participated\");\n\n        if (msg.value != 0) {\n            players.push(msg.sender);\n            player_shares[msg.sender] = Ticket({\n                ticket_words : words,\n                deposit : msg.value,\n                brought : true\n            });\n            total_prize += msg.value;\n            seed ^= words;\n            emit totalPrizeUpdated(total_prize);\n        }\n    }\n\n    function lotteryEnd() public {//onlyAfter(lotteryEndTime) {\n\n        // 1.conditions\n        // require(!ended, \"lottery already ended!\");   // FIXME for performace test\n\n        // 2. effect\n        ended = true;\n        // 2.1 draw\n        // uint total_amount = 0;\n        // bytes32 seed;\n        require(players.length > 0, \"no players\");\n        // for (uint i = 0; i < players.length; i++) {\n        //     // total_amount += player_shares[players[i]].deposit;\n        //     seed ^= player_shares[players[i]].ticket_words;\n        // }\n        prize_for_winner = total_prize * winner_percent / 100;\n        prize_for_beneficiary = total_prize - prize_for_winner;\n\n        // the more you buy, the higher change you win.\n        // 2.2 find the winner position based on the share.\n        // uint win_idx = luckyOne(seed, total_prize);\n        uint win_idx = luckyOne();\n        require(win_idx < total_prize, uint2str(win_idx));\n        uint winner_idx = 0;\n        uint current_loc = 0;\n        for (;current_loc < win_idx; winner_idx++) {\n            current_loc += player_shares[players[winner_idx]].deposit;\n        }\n        require(--winner_idx < players.length, uint2str(winner_idx));\n        winner = players[winner_idx];\n\n        // 2.2 split prize\n        emit lotteryEnded(winner, prize_for_winner, prize_for_beneficiary);\n\n        // 3. interaction\n        require(winner != address(0), \"winner address wrong!\");\n        winner.transfer(prize_for_winner);\n        beneficiary.transfer(prize_for_beneficiary);\n    }\n\n    // function luckyOne(bytes32 seed, uint denominator) private view returns (uint) {\n    function luckyOne() private view returns (uint) {\n        // return 0;\n        // uint player_count = players.length;\n        // require(denominator > 0, \"denominator cannot be zero!\");\n        require(total_prize > 0, \"denominator cannot be zero!\");\n        // seed = keccak256(abi.encodePacked(block.timestamp, block.difficulty, now, seed));\n        bytes32 final_seed = sha256(abi.encodePacked(block.timestamp, block.difficulty, now, seed, total_prize));\n        // return uint(seed) % denominator;\n        return uint(final_seed) % total_prize;\n    }\n\n    function uint2str(uint _i) internal pure returns (string memory _uintAsString) {\n        if (_i == 0) {\n            return \"0\";\n        }\n        uint j = _i;\n        uint len;\n        while (j != 0) {\n            len++;\n            j /= 10;\n        }\n        bytes memory bstr = new bytes(len);\n        uint k = len - 1;\n        while (_i != 0) {\n            bstr[k--] = byte(uint8(48 + _i % 10));\n            _i /= 10;\n        }\n        return string(bstr);\n    }\n}\n",
  "sourcePath": "/Users/guchenghao/LuckyYou/contracts/LuckyYou.sol",
  "compiler": {
    "name": "solc",
    "version": "0.5.0+commit.1d4f565a.Emscripten.clang"
  },
  "schemaVersion": "3.0.8",
  "updatedAt": "2019-04-28T12:11:16.143Z",
  "devdoc": {
    "methods": {}
  },
  "userdoc": {
    "methods": {}
  }
}