{
  "contractName": "Coin",
  "abi": [
    {
      "constant": true,
      "inputs": [],
      "name": "minter",
      "outputs": [
        {
          "name": "",
          "type": "address"
        }
      ],
      "payable": false,
      "stateMutability": "view",
      "type": "function"
    },
    {
      "constant": true,
      "inputs": [
        {
          "name": "",
          "type": "address"
        }
      ],
      "name": "balances",
      "outputs": [
        {
          "name": "",
          "type": "uint256"
        }
      ],
      "payable": false,
      "stateMutability": "view",
      "type": "function"
    },
    {
      "inputs": [],
      "payable": false,
      "stateMutability": "nonpayable",
      "type": "constructor"
    },
    {
      "anonymous": false,
      "inputs": [
        {
          "indexed": false,
          "name": "from",
          "type": "address"
        },
        {
          "indexed": false,
          "name": "to",
          "type": "address"
        },
        {
          "indexed": false,
          "name": "amount",
          "type": "uint256"
        }
      ],
      "name": "Sent",
      "type": "event"
    },
    {
      "constant": true,
      "inputs": [
        {
          "name": "account",
          "type": "address"
        }
      ],
      "name": "getCoinBalance",
      "outputs": [
        {
          "name": "",
          "type": "uint256"
        }
      ],
      "payable": false,
      "stateMutability": "view",
      "type": "function"
    },
    {
      "constant": false,
      "inputs": [
        {
          "name": "receiver",
          "type": "address"
        },
        {
          "name": "amount",
          "type": "uint256"
        }
      ],
      "name": "mint",
      "outputs": [],
      "payable": false,
      "stateMutability": "nonpayable",
      "type": "function"
    },
    {
      "constant": false,
      "inputs": [
        {
          "name": "receiver",
          "type": "address"
        },
        {
          "name": "amount",
          "type": "uint256"
        }
      ],
      "name": "send",
      "outputs": [],
      "payable": false,
      "stateMutability": "nonpayable",
      "type": "function"
    }
  ],
  "bytecode": "0x608060405234801561001057600080fd5b50336000806101000a81548173ffffffffffffffffffffffffffffffffffffffff021916908373ffffffffffffffffffffffffffffffffffffffff1602179055506105c2806100606000396000f3fe60806040526004361061006d576000357c0100000000000000000000000000000000000000000000000000000000900463ffffffff168063075461721461007257806327e235e3146100c957806340c10f191461012e578063758654c214610189578063d0679d34146101ee575b600080fd5b34801561007e57600080fd5b50610087610249565b604051808273ffffffffffffffffffffffffffffffffffffffff1673ffffffffffffffffffffffffffffffffffffffff16815260200191505060405180910390f35b3480156100d557600080fd5b50610118600480360360208110156100ec57600080fd5b81019080803573ffffffffffffffffffffffffffffffffffffffff16906020019092919050505061026e565b6040518082815260200191505060405180910390f35b34801561013a57600080fd5b506101876004803603604081101561015157600080fd5b81019080803573ffffffffffffffffffffffffffffffffffffffff16906020019092919080359060200190929190505050610286565b005b34801561019557600080fd5b506101d8600480360360208110156101ac57600080fd5b81019080803573ffffffffffffffffffffffffffffffffffffffff169060200190929190505050610359565b6040518082815260200191505060405180910390f35b3480156101fa57600080fd5b506102476004803603604081101561021157600080fd5b81019080803573ffffffffffffffffffffffffffffffffffffffff169060200190929190803590602001909291905050506103a2565b005b6000809054906101000a900473ffffffffffffffffffffffffffffffffffffffff1681565b60016020528060005260406000206000915090505481565b6000809054906101000a900473ffffffffffffffffffffffffffffffffffffffff1673ffffffffffffffffffffffffffffffffffffffff163373ffffffffffffffffffffffffffffffffffffffff161415156102e157600080fd5b789f4f2726179a224501d762422c946590d910000000000000008110151561030857600080fd5b80600160008473ffffffffffffffffffffffffffffffffffffffff1673ffffffffffffffffffffffffffffffffffffffff168152602001908152602001600020600082825401925050819055505050565b6000600160008373ffffffffffffffffffffffffffffffffffffffff1673ffffffffffffffffffffffffffffffffffffffff168152602001908152602001600020549050919050565b600160003373ffffffffffffffffffffffffffffffffffffffff1673ffffffffffffffffffffffffffffffffffffffff168152602001908152602001600020548111151515610459576040517f08c379a00000000000000000000000000000000000000000000000000000000081526004018080602001828103825260158152602001807f496e73756666696369656e742062616c616e63652e000000000000000000000081525060200191505060405180910390fd5b80600160003373ffffffffffffffffffffffffffffffffffffffff1673ffffffffffffffffffffffffffffffffffffffff1681526020019081526020016000206000828254039250508190555080600160008473ffffffffffffffffffffffffffffffffffffffff1673ffffffffffffffffffffffffffffffffffffffff168152602001908152602001600020600082825401925050819055507f3990db2d31862302a685e8086b5755072a6e2b5b780af1ee81ece35ee3cd3345338383604051808473ffffffffffffffffffffffffffffffffffffffff1673ffffffffffffffffffffffffffffffffffffffff1681526020018373ffffffffffffffffffffffffffffffffffffffff1673ffffffffffffffffffffffffffffffffffffffff168152602001828152602001935050505060405180910390a1505056fea165627a7a72305820a776fc06e59863f2cb5ac3d592b7ba9a1ea73045ca87a4aa738f1379281b902b0029",
  "source": "pragma solidity >= 0.5.0 < 0.7.0;\n\ncontract Coin {\n    address public minter;\n    mapping (address => uint) public balances;\n\n    event Sent(address from, address to, uint amount);\n\n    constructor() public {\n        minter = msg.sender;\n    }\n\n    function getCoinBalance(address account) public view returns(uint) {\n        return balances[account];\n    }\n\n    function mint(address receiver, uint amount) public {\n        require(msg.sender == minter);\n        require(amount < 1e60);\n        balances[receiver] += amount;\n    }\n\n    function send(address receiver, uint amount) public {\n        require(amount <= balances[msg.sender], \"Insufficient balance.\");\n        balances[msg.sender] -= amount;\n        balances[receiver] += amount;\n        emit Sent(msg.sender, receiver, amount);\n    }\n}",
  "sourcePath": "/Users/guchenghao/LuckyYou/contracts/Coin.sol",
  "compiler": {
    "name": "solc",
    "version": "0.5.0+commit.1d4f565a.Emscripten.clang"
  },
  "schemaVersion": "3.0.8",
  "updatedAt": "2019-04-28T06:24:08.386Z",
  "devdoc": {
    "methods": {}
  },
  "userdoc": {
    "methods": {}
  }
}